:020000040800F2
:10000000005000208D1800080503000807030008B1
:10001000090300080B0300080D030008000000009E
:100020000000000000000000000000000F030008B6
:100030001103000800000000130300081503000866
:10004000D5180008D5180008D5180008D5180008DC
:10005000D5180008D5180008D5180008D5180008CC
:10006000D5180008D5180008D5180008D5180008BC
:10007000D5180008D5180008D5180008D5180008AC
:10008000D5180008D5180008D5180008D51800089C
:10009000D5180008D5180008D5180008D51800088C
:1000A000D5180008D5180008D5180008D51800087C
:1000B000D5180008D5180008D5180008D51800086C
:1000C000D5180008D5180008D5180008D51800085C
:1000D000D5180008D5180008D5180008D51800084C
:1000E000D5180008D5180008D51800080000000031
:1000F0000000000000000000000000000000000000
:0C01000000000000000000005FF808F1A3
:10010C0010B5054C237833B9044B13B10448AFF345
:10011C0000800123237010BD3C040020000000006F
:10012C00A41A000808B5034B1BB103490348AFF3ED
:10013C00008008BD0000000040040020A41A000844
:10014C002DE9F04188B0002404940594069407949A
:10015C00294B9A6942F020029A619A6902F02002B6
:10016C000192019A9A6942F004029A619A6902F02A
:10017C0004020292029A9A6942F008029A619B69FF
:10018C0003F008030393039B1C4D012230212846E6
:10019C0000F0C6FCDFF8688022464FF47041404600
:1001AC0000F0BEFC22464FF48051284600F0B8FC0B
:1001BC0030230493112305930126069603230793FA
:1001CC0004A9284600F09AFB4FF47043049305965B
:1001DC0006940227079704A9404600F08FFB4FF4C2
:1001EC008053049305960694079704A9284600F0BB
:1001FC0085FB08B0BDE8F08100100240000801400A
:10020C00000C014072B6FEE700B591B02822002127
:10021C0006A801F07FFB0023019302930393049340
:10022C000593012206924FF4803307930A9202221F
:10023C000D920E934FF4E0130F9306A800F096FC6A
:10024C0080B90F23019302210291002303934FF4F1
:10025C0080620492059301A800F0BAFE20B911B097
:10026C005DF804FBFFF7CEFFFFF7CCFF08B500F0FD
:10027C00AFFAFFF7C9FFFFF763FF00F04BF800F090
:10028C0083F900F081F800F0B1F800F0DDF900F02E
:10029C00F5F901224FF48051054800F041FC4FF470
:1002AC008051034800F042FC642000F0B5FAF6E7F8
:1002BC000008014082B00E4B9A6942F001029A612B
:1002CC009A6902F001020092009ADA6942F08052B7
:1002DC00DA61DB6903F080530193019B054A536893
:1002EC0023F0E06343F00073536002B0704700BF2B
:1002FC000010024000000140FEE7FEE7FEE7FEE7CB
:10030C00FEE770477047704708B500F073FA08BDF8
:10031C007047000000B587B0002302930393049349
:10032C000593009301931648164A026040F2CF22BF
:10033C004260836040F2E732C260036143618361D3
:10034C0001F00EF890B94FF48053029302A90C48B7
:10035C0001F066F968B900230093019369460848D7
:10036C0001F0DEF940B907B05DF804FBFFF74AFF76
:10037C00E9E7FFF747FFEEE7FFF744FFF3E700BFBE
:10038C0058040020002C014000B58DB0242200211F
:10039C0003A801F0BFFA0023019302931148124AFB
:1003AC000260436083604FF6FF72C2600361836139
:1003BC00012303930593099303A901F029F850B97C
:1003CC0000230193029301A9064801F0A9F928B969
:1003DC000DB05DF804FBFFF715FFF1E7FFF712FF17
:1003EC00F6E700BFE80400200004004000B58DB023
:1003FC002422002103A801F08DFA0023019302931B
:10040C001148124A0260436083604FF6FF72C2606B
:10041C0003618361012303930593099303A900F0FE
:10042C00F7FF50B900230193029301A9064801F08C
:10043C0077F928B90DB05DF804FBFFF7E3FEF1E79F
:10044C00FFF7E0FEF6E700BF300500200008004093
:10045C0082B003680F4A934204D0B3F1804F0CD0A2
:10046C0002B070470C4B9A6942F400629A619B6926
:10047C0003F400630093009BF2E703F50433DA699D
:10048C0042F00102DA61DB6903F001030193019B85
:10049C00E6E700BF002C01400010024000B589B017
:1004AC000023049305930693079303681E4A934213
:1004BC0005D01E4A93421CD009B05DF804FB1C4BBE
:1004CC00DA6942F00202DA61DA6902F002020092A1
:1004DC00009A9A6942F004029A619B6903F0040342
:1004EC000193019BC023049304A9124800F006FA5F
:1004FC00E2E70F4BDA6942F00402DA61DA6902F0E2
:10050C0004020292029A9A6942F008029A619B696B
:10051C0003F008030393039BC023049304A9064828
:10052C0000F0ECF9C8E700BF0004004000080040F0
:10053C000010024000080140000C014000B587B0DB
:10054C00002302930393049305930368B3F1804F44
:10055C0002D007B05DF804FB03F504339A6942F04E
:10056C0004029A619B6903F004030193019B03232A
:10057C00029302230393059302A9024800F0BEF9EB
:10058C00E7E700BF0008014000B58FB000230A93D5
:10059C000B930C930D93089309930193029303937C
:1005AC00049305930693079326484FF0804202600C
:1005BC0040F2CF22426083606322C2600361836198
:1005CC0000F0CEFE58BB4FF480530A930AA91D4885
:1005DC0001F026F830BB1B4800F0EEFE28BB0023D0
:1005EC000893099308A9174801F09AF800BB6023F7
:1005FC000193002202920392059201A9114800F086
:10060C0095FFC0B904220DEB02010E4800F08EFFDD
:10061C00A0B90C48FFF792FF0FB05DF804FBFFF791
:10062C00F1FDD0E7FFF7EEFDD5E7FFF7EBFDD6E7E1
:10063C00FFF7E8FDDBE7FFF7E5FDE3E7FFF7E2FD9A
:10064C00E7E700BFA004002008B50A480A4B036086
:10065C004FF4E133436000238360C36003610C22D9
:10066C0042618361C36101F0DBF800B908BDFFF79B
:10067C00C9FDFBE7780500200038014008B50A48A1
:10068C000A4B03604FF4E133436000238360C36083
:10069C0003610C2242618361C36101F0C1F800B9AE
:1006AC0008BDFFF7AFFDFBE7C0050020004400408C
:1006BC0010B588B000230493059306930793036841
:1006CC002C4A934204D02C4A93422BD008B010BD34
:1006DC002A4B9A6942F480429A619A6902F48042E8
:1006EC000092009A9A6942F004029A619B6903F0A5
:1006FC0004030193019B4FF40073049302230593AD
:10070C00032307931E4C04A9204600F0F7F84FF47E
:10071C008063049300230593069304A9204600F0FC
:10072C00EDF8D3E7154BDA6942F40032DA61DA6995
:10073C0002F400320292029A9A6942F004029A611F
:10074C009B6903F004030393039B04230493022388
:10075C000593032307930A4C04A9204600F0CEF816
:10076C000823049300230593069304A9204600F064
:10077C00C5F8ABE7003801400044004000100240CF
:10078C000008014010B504460E4B18784FF47A73EC
:10079C00B3FBF0F30C4A1068B0FBF3F000F09AF8DE
:1007AC0068B90F2C01D901200AE0002221464FF034
:1007BC00FF3000F057F8054B1C60002000E00120D2
:1007CC0010BD00BF04000020000000200800002025
:1007DC0008B5074A136843F010031360032000F0B8
:1007EC002FF80F20FFF7CEFFFFF764FD002008BDA8
:1007FC0000200240034A1168034B1B780B44136022
:10080C00704700BF0806002004000020014B186848
:10081C00704700BF0806002038B50446FFF7F6FF06
:10082C000546B4F1FF3F02D0044B1B781C44FFF784
:10083C00EDFF401BA042FAD338BD00BF04000020DE
:10084C00074AD36823F4E0631B041B0C000200F47A
:10085C00E060034343F0BF6343F40033D36070475D
:10086C0000ED00E000B5194BDB68C3F30223C3F1C4
:10087C00070CBCF1040F28BF4FF0040C03F1040E5D
:10088C00BEF1060F18D9033B4FF0FF3E0EFA0CFCDD
:10089C0021EA0C0199400EFA03F322EA03031943EF
:1008AC0000280BDB0901C9B200F1604000F5614082
:1008BC0080F800135DF804FB0023E5E700F00F005F
:1008CC000901C9B2024B1954F4E700BF00ED00E076
:1008DC0014ED00E00138B0F1807F0BD24FF0E02333
:1008EC005861054AF02182F82310002098610722F4
:1008FC001A6170470120704700ED00E070B582B0BE
:10090C000024A446A6E0804DAA4210D007D97F4D02
:10091C00AA420CD005F58035AA4208D013E0A5F503
:10092C008015AA4203D005F57025AA4207D18A6822
:10093C00002A58D0012A51D04361082403E0A5F5C0
:10094C008015AA42F3D0BEF1FF0F4ED80646BEF179
:10095C00FF0F4CD84FEA8C0233680F25954023EAE1
:10096C00050304FA02F2134333604B6813F0805F03
:10097C006ED0674B9A6942F001029A619B6903F051
:10098C0001030193019B4FEA9C02951C614B53F8A8
:10099C0025600CF003039D000F23AB4026EA0306F1
:1009AC005D4B984229D003F58063984200F08E800D
:1009BC0003F58063984200F08B8003F580639842C6
:1009CC0019D004231AE0CC68BDE7CC680434BAE72C
:1009DC00CC680834B7E7CC680C34B4E7036108245E
:1009EC00B1E70024AFE70424ADE7061DAFE7ACF197
:1009FC0008029200B0E7032300E00023AB4033432E
:100A0C000232444D45F822304B6813F4801F61D0FC
:100A1C00424A936843EA0E0393604B6813F4001F39
:100A2C005ED03E4AD36843EA0E03D3604B6813F49E
:100A3C00003F5BD0394A536843EA0E0353604B685E
:100A4C0013F4803F58D0354A136843EA0E03136001
:100A5C000CF1010C0A6832FA0CF353D0012303FA9F
:100A6C000CF302EA030E33EA0202F1D14A68122AAD
:100A7C003FF649AF122A3FF666AF01A555F822F0B2
:100A8C003B090008D3090008DD090008EF0900083C
:100A9C0053090008530900085309000853090008BA
:100AAC0053090008530900085309000853090008AA
:100ABC00530900085309000853090008530900089A
:100ACC0053090008D7090008E3090008012395E73A
:100ADC00022393E7114A936823EA0E0393609CE781
:100AEC000E4AD36823EA0E03D3609FE70B4A536880
:100AFC0023EA0E035360A2E7084A136823EA0E03A5
:100B0C001360A5E702B070BD000022100000311088
:100B1C0000100240000001400008014000040140A8
:100B2C000AB101617047090401617047C36801EAA9
:100B3C00030221EA030141EA02410161704700000E
:100B4C0082B0084B1B68084AA2FB03235B0A00FB1C
:100B5C0003F3019300BF019B5A1E0192002BF9D1A4
:100B6C0002B0704700000020D34D6210002800F046
:100B7C00F18170B582B00446036813F0010F2CD0DC
:100B8C00994B5B6803F00C03042B1DD0964B5B68F0
:100B9C0003F00C03082B12D06368B3F5803F41D0EF
:100BAC00002B55D103F1804303F504331A6822F46A
:100BBC0080321A601A6822F480221A6037E08A4B5D
:100BCC005B6813F4803FE7D0874B1B6813F4003F3E
:100BDC0003D06368002B00F0BF81236813F0020F71
:100BEC0075D0814B5B6813F00C0F5FD07E4B5B684C
:100BFC0003F00C03082B54D02369002B00F08A80DF
:100C0C007A4B01221A60FFF701FE0546764B1B68F2
:100C1C0013F0020F75D1FFF7F9FD401B0228F5D92F
:100C2C0003209EE1704A136843F4803313606368B9
:100C3C0043B3FFF7EBFD05466B4B1B6813F4003F0A
:100C4C00CBD1FFF7E3FD401B6428F5D9032088E1E5
:100C5C00B3F5A02F09D0644B1A6822F480321A60C5
:100C6C001A6822F480221A60E1E703F18043A3F5AD
:100C7C003C331A6842F480221A601A6842F48032BB
:100C8C001A60D4E7FFF7C2FD0546574B1B6813F4F7
:100C9C00003FA2D0FFF7BAFD401B6428F5D9032012
:100CAC005FE1514B5B6813F4803FA5D14E4B1B6841
:100CBC0013F0020F03D02369012B40F04F814A4AF5
:100CCC00136823F0F803616943EAC10313602368D6
:100CDC0013F0080F33D0A369002B5CD0434B0122D7
:100CEC00C3F88024FFF792FD05463F4B5B6A13F077
:100CFC00020F21D1FFF78AFD401B0228F5D90320F2
:100D0C002FE1394A136823F0F803616943EAC10300
:100D1C001360DCE7354B00221A60FFF777FD0546C0
:100D2C00314B1B6813F0020FD1D0FFF76FFD401B46
:100D3C000228F5D9032014E10120FFF701FF2368F5
:100D4C0013F0040F00F09680274BDB6913F0805FE3
:100D5C0034D1254BDA6942F08052DA61DB6903F059
:100D6C0080530193019B0125214B1B6813F4807F59
:100D7C0026D0E368012B3DD0002B53D103F18043E7
:100D8C0003F504331A6A22F001021A621A6A22F07D
:100D9C0004021A6233E0154B0022C3F88024FFF7DB
:100DAC0035FD0546104B5B6A13F0020FC7D0FFF7F9
:100DBC002DFD401B0228F5D90320D2E00025D3E7F6
:100DCC000B4A136843F480731360FFF71FFD06464C
:100DDC00074B1B6813F4807FCBD1FFF717FD801BEB
:100DEC006428F5D90320BCE0001002400000424208
:100DFC00007000405F4A136A43F001031362E3681A
:100E0C0033B3FFF703FD06465A4B1B6A13F0020F70
:100E1C002FD1FFF7FBFC801B41F288339842F3D9AA
:100E2C0003209EE0052B09D0524B1A6A22F00102D6
:100E3C001A621A6A22F004021A62E0E74D4B1A6A2F
:100E4C0042F004021A621A6A42F001021A62D6E7F0
:100E5C00FFF7DCFC0646474B1B6A13F0020F08D069
:100E6C00FFF7D4FC801B41F288339842F3D903205E
:100E7C0077E0E5B9E369002B72D03E4A526802F084
:100E8C000C02082A56D0022B17D03B4B00221A66B4
:100E9C00FFF7BCFC0446374B1B6813F0007F47D0B0
:100EAC00FFF7B4FC001B0228F5D9032059E0314AA6
:100EBC00D36923F08053D361DCE72F4B00221A66F1
:100ECC00FFF7A4FC05462B4B1B6813F0007F06D0E4
:100EDC00FFF79CFC401B0228F5D9032041E0236A54
:100EEC00B3F5803F1AD023494B6823F47413226A5C
:100EFC00606A024313434B601F4B01221A66FFF7D3
:100F0C0085FC04461B4B1B6813F0007F0ED1FFF7CA
:100F1C007DFC001B0228F5D9032022E0154A5368FA
:100F2C0023F40033A1680B435360DCE7002018E086
:100F3C00002016E0012B16D00E4B5B6803F48031B9
:100F4C00226A914211D103F47013626A93420ED15A
:100F5C00002006E001207047012002E0012000E0A3
:100F6C00002002B070BD0120FBE70120F9E7012051
:100F7C00F7E700BF00100240000042420F4B5B68D5
:100F8C0003F00C02082A01D00D487047C3F38342CA
:100F9C000C49885C13F4803F0BD0084B5B68C3F39F
:100FAC004043094AD35C064A02FB00F0B0FBF3F065
:100FBC007047064B03FB00F0704700BF0010024067
:100FCC0000127A00D41A0008E41A000800093D0047
:100FDC00002800F0A08070B50D460446524B1B68EB
:100FEC0003F007038B420BD24F4A136823F007031D
:100FFC000B431360136803F007038B4240F08D80A2
:10100C00236813F0020F17D013F0040F04D0474AD3
:10101C00536843F4E0635360236813F0080F04D063
:10102C00424A536843F460535360404A536823F078
:10103C00F003A1680B435360236813F0010F31D008
:10104C006368012B20D0022B25D0384A126812F08D
:10105C00020F64D035494A6822F0030213434B60F7
:10106C00FFF7D4FB0646314B5B6803F00C03626858
:10107C00B3EB820F16D0FFF7C9FB801B41F288330C
:10108C009842F0D9032045E0284A126812F4003F38
:10109C00E0D101203EE0254A126812F0007FD9D140
:1010AC00012037E0204B1B6803F00703AB420AD941
:1010BC001D4A136823F007032B431360136803F0D6
:1010CC000703AB422DD1236813F0040F06D0174A47
:1010DC00536823F4E063E1680B435360236813F017
:1010EC00080F07D0114A536823F46053216943EA6F
:1010FC00C1035360FFF742FF0C4B5B68C3F3031350
:10110C000B4AD35CD8400B4B18600B4B1868FFF79D
:10111C0039FB002070BD012070470120FAE7012047
:10112C00F8E70120F6E700BF002002400010024063
:10113C00BC1A00080000002008000020014B1868B1
:10114C00704700BF0000002008B5FFF7F7FF044B05
:10115C005B68C3F30223034AD35CD84008BD00BFCD
:10116C0000100240CC1A000808B5FFF7E7FF044B4B
:10117C005B68C3F3C223034AD35CD84008BD00BFED
:10118C0000100240CC1A000870B4036A026A22F004
:10119C00010202624668826922F073020C6844EA1A
:1011AC00020523F002028B6813430D4CA04209D0B8
:1011BC000B4CA0420DD0466085614A6842630362C5
:1011CC0070BC704723F00803CA68134323F0040370
:1011DC00EEE726F440764A6932438E691643EAE715
:1011EC00002C014030B4036A026A22F4807202625D
:1011FC004568C26922F073020C68224323F4007321
:10120C008C6843EA04230F4CA04209D00D4CA04239
:10121C000ED04560C2614A68C263036230BC70473D
:10122C0023F40063CC6843EA042323F48063EDE7E2
:10123C0025F440554C6945EA04158C6945EA0415BA
:10124C00E7E700BF002C014030B4036A026A22F4C5
:10125C00805202624468C26922F4E6420D6842EA96
:10126C00052223F400538D6843EA0533074DA84249
:10127C0006D04460C2614A680264036230BC7047A5
:10128C0024F480444D6944EA8514F2E7002C0140B3
:10129C0010B4036A046A24F001040462846924F023
:1012AC00F00C4CEA021223F00A030B438261036236
:1012BC0010BC704710B4036A046A24F01004046272
:1012CC00846924F4704C4CEA023223F0A00343EA04
:1012DC0001138261036210BC7047836823F07003B2
:1012EC000B4343F0070383607047704703681B4A46
:1012FC0090420AD0B0F1804F07D0A2F594329042C0
:10130C0003D002F58062904203D123F070034A6847
:10131C001343124A90420AD0B0F1804F07D0A2F585
:10132C009432904203D002F58062904203D123F4B0
:10133C004073CA68134323F080034A691343036064
:10134C008B68C3620B688362044B984202D0012302
:10135C00436170470B690363F9E700BF002C014040
:10136C0040B310B5044690F83D30F3B1022384F835
:10137C003D30214651F8040BFFF7B8FF012384F8E8
:10138C00463084F83E3084F83F3084F8403084F89E
:10139C00413084F8423084F8433084F8443084F887
:1013AC00453084F83D30002010BD80F83C30FFF70C
:1013BC004FF8DBE70120704740B310B5044690F8B6
:1013CC003D30F3B1022384F83D30214651F8040B33
:1013DC00FFF78CFF012384F8463084F83E3084F804
:1013EC003F3084F8403084F8413084F8423084F83F
:1013FC00433084F8443084F8453084F83D30002084
:10140C0010BD80F83C30FFF770FFDBE70120704720
:10141C00002857D070B50D46044690F83D30002B8F
:10142C004BD0022384F83D302268936823F4804328
:10143C0023F007039360214651F8040BFFF756FF86
:10144C0021688A688B690E6A2868104323F4407CF3
:10145C002CF0030CAA68AB6942EA032343EA0C03A1
:10146C0023F47C4323F0FC03EA69D5F80CC04CEA66
:10147C00022C4CEA030C2A6A13032A6943EA02136E
:10148C0043EA0C0326F022066A686D6942EA0512EB
:10149C003243886021688B6123681A62012384F8C7
:1014AC00463084F83E3084F83F3084F8423084F87B
:1014BC00433084F83D30002070BD80F83C30FEF79E
:1014CC00EDFFAEE70120704730B4036A026A22F0E8
:1014DC00100202624468826922F4E6420D6842EA14
:1014EC00052223F020038D6843EA05130E4DA84214
:1014FC0009D00D4DA8420ED0446082614A688263C7
:10150C00036230BC704723F08003CD6843EA0513B7
:10151C0023F04003EDE724F440644D6944EA85046C
:10152C008D6944EA8504E7E7002C014038B590F852
:10153C003C30012B66D004460D46012380F83C302C
:10154C000C2A5AD8DFE802F0075959591B59595936
:10155C003059595944000068FFF716FE2268936908
:10156C0043F0080393612268936923F004039361A9
:10157C002268936929690B43936100203EE000685F
:10158C00FFF7A2FF2268936943F40063936122681A
:10159C00936923F48063936122689369296943EA10
:1015AC0001239361002029E00068FFF71BFE2268ED
:1015BC00D36943F00803D3612268D36923F0040391
:1015CC00D3612268D36929690B43D361002015E0EC
:1015DC000068FFF739FE2268D36943F40063D361D6
:1015EC002268D36923F48063D3612268D3692969A3
:1015FC0043EA0123D361002000E00120002384F89A
:10160C003C3038BD0220FCE710B4846824F47F4CD5
:10161C0042EA03220A4342EA0C02826010BC704781
:10162C0090F83C30012B78D010B50446012380F89B
:10163C003C30022380F83D300268936823F47F43EA
:10164C0023F0770393600B68602B4CD029D8402B88
:10165C0054D00CD9502B22D1CA6849680068FFF7C6
:10166C0017FE50212068FFF738FE002005E0202BE4
:10167C000DD009D9302B0AD00120012384F83D303C
:10168C00002384F83C3010BD0BB1102B05D119464A
:10169C002068FFF722FE0020EFE70120EDE7012094
:1016AC00EBE7B3F5805F34D0B3F5005F0CD1CB68BA
:1016BC004A6889680068FFF7A7FF2268936843F4BB
:1016CC00804393600020D8E7702B24D1CB684A6804
:1016DC0089680068FFF798FF2268936843F07703E6
:1016EC0093600020C9E7CA6849680068FFF7E2FD0B
:1016FC0060212068FFF7F1FD0020BEE7CA68496849
:10170C000068FFF7C5FD40212068FFF7E6FD0020CB
:10171C00B3E70020B1E70120AFE7022070470000DB
:10172C0090F83C30012B2CD010B4012380F83C30C5
:10173C00022380F83D3003685A689C6822F0700CD4
:10174C000A6842EA0C025A6003680F4A93420AD0B4
:10175C00B3F1804F07D0A2F59432934203D002F537
:10176C008062934204D124F080044A6814439C6044
:10177C00012380F83D30002380F83C30184610BC23
:10178C0070470220704700BF002C014010B5044682
:10179C000268136923F44053C1680B4313618368D7
:1017AC000269134342691A430168CB6823F4B053AE
:1017BC0023F00C031343CB600268536923F440738A
:1017CC0081690B4353610268134B9A4220D0FFF797
:1017DC00BBFC024602EB820202EB820263689B00B6
:1017EC00B2FBF3F20D48A0FB02314909642303FB61
:1017FC0011231B013233A0FB03235B0903F0F0021E
:10180C0002EB011203F00F03216813448B6010BD2F
:10181C00FFF7AAFC0246DDE7003801401F85EB51BB
:10182C0060B310B5044690F8413013B3242384F808
:10183C0041302268D36823F40053D3602046FFF76D
:10184C00A5FF2268136923F490431361226853693E
:10185C0023F02A0353612268D36843F40053D36006
:10186C0000206064202384F8413084F842306063A7
:10187C0010BD80F84030FEF71BFFD7E70120704702
:10188C00FEF746FD0B480C490C4A002302E0D458E5
:10189C00C4500433C4188C42F9D3094A094C0023B0
:1018AC0001E013600432A242FBD300F00FF8FEF704
:1018BC00DDFC7047000000203C040020F81A0008F2
:1018CC003C04002010060020FEE7000070B50D4E11
:1018DC000D4D761BB61006D0002455F8043B013490
:1018EC009847A642F9D1094E094D00F0D5F8761B60
:1018FC00B61006D0002455F8043B01349847A64294
:10190C00F9D170BDEC1A0008EC1A0008F41A0008A2
:10191C00EC1A0008830730B548D0541E002A3FD07B
:10192C000346CAB201E0013C3AD303F8012B9D07F0
:10193C00F9D1032C2DD9CDB245EA05250F2C45EA5A
:10194C00054536D9A4F1100222F00F0C03F1200E3C
:10195C00E6444FEA121C03F1100242E9045542E935
:10196C00025510327245F8D10CF1010214F00C0F33
:10197C0003EB021204F00F0C13D0ACF1040323F0B0
:10198C0003030433134442F8045B9342FBD10CF081
:10199C0003042CB1CAB21C4403F8012B9C42FBD1AA
:1019AC0030BD64461346002CF4D1F9E703461446C7
:1019BC00BFE71A46A446E0E7024B13B1024800F019
:1019CC0005B8704700000000E51900080023014627
:1019DC001A46184600F01AB838B5084B084D5B1B70
:1019EC009C1007D0043B1D44013C55F80439984722
:1019FC00002CF9D1BDE8384000F054B8F81A0008B2
:101A0C00F41A0008704700BF704700BF2DE9F0477B
:101A1C00DFF87CA00646DAF8000098460F4691469F
:101A2C00FFF7F0FF1B4B1B68D3F8484124B36568E4
:101A3C001F2D26DC5EB96B1C0235DAF800006360E2
:101A4C0044F82570FFF7E0FF0020BDE8F087012384
:101A5C0004EB8501C1F88890D4F88821AB401A4377
:101A6C00022EC4F88821C1F80881E4D1D4F88C2165
:101A7C001343C4F88C31DEE703F5A674C3F8484170
:101A8C00D5E7DAF80000FFF7BFFF4FF0FF30DCE7D7
:101A9C0038040020E81A0008F8B500BFF8BC08BCF0
:101AAC009E467047F8B500BFF8BC08BC9E46704710
:101ABC0000000000000000000102030406070809F2
:101ACC0000000000010203040203040506070809D4
:101ADC000A0B0C0D0E0F101001020000100000205C
:081AEC00C519000831010008D2
:041AF4000D010008D8
:101AF8000024F400010000001000000000000000B5
:101B080000000000FC02002064030020CC03002039
:101B180000000000000000000000000000000000BD
:101B280000000000000000000000000000000000AD
:101B3800000000000000000000000000000000009D
:101B4800000000000000000000000000000000008D
:101B5800000000000000000000000000000000007D
:101B6800000000000000000000000000000000006D
:101B7800000000000000000000000000000000005D
:101B8800000000000000000000000000000000004D
:101B9800000000000000000000000000000000003D
:101BA800000000000000000001000000000000002C
:101BB8000E33CDAB34126DE6ECDE05000B000000F1
:101BC800000000000000000000000000000000000D
:101BD80000000000000000000000000000000000FD
:101BE80000000000000000000000000000000000ED
:101BF80000000000000000000000000000000000DD
:0C1F280000000000000000000C0600207B
:040000050800188D4A
:00000001FF
